:10027800C0F9A4B0999282F88090000000000000B4
:010288000075
:0402A600020A000048
:040289007FE87E0389
:0B028D00EF1FAC0670011E4C70F62243
:10019D00E4FBFAEA705BEB14601C14602B14603AFC
:1001AD002403704DD2A2D2A3D2A474782511F58266
:1001BD00740235108034C2A2D2A3D2A47478250F54
:1001CD00F5827402350E8022D2A2C2A3D2A4747815
:1001DD00250DF5827402350C8010C2A2C2A3D2A4E3
:1001ED007478250BF5827402350AF583E493F4F5E2
:1001FD00807F647E0012028DE4F5800BBB00010A46
:06020D00EB64044A708D51
:0102130022C8
:1002140020B11012028920B14E050BE50B70480580
:100224000A804420B01012028920B03BE50B150B64
:100234007035150A803120B21912028920B228E4DF
:10024400F50AF50BF50CF50DF50EF50FF510F51196
:10025400801520B31212028920B30CE509250BF591
:100264000BE508350AF50A30B1FD30B0FD30B2FDBA
:0402740030B3FD2284
:10008F00E4F51275900FE590640F6069E590640FC9
:10009F00606375900FAF90EF24F5601224FE601629
:1000AF0014601B2407701DE4F508F5098016750808
:1000BF0000750901800E7508007509028006750824
:1000CF00007509037590F0AF90EF2450601424E091
:1000DF00601424F060142470701B850808850909CA
:1000EF0080137404800674088002740C2509F509C6
:1000FF00E43508F508C3E512648094B2500AE59020
:08010F0064F06004051280EDAC
:0101170022C5
:10011800C3E50B940AE50A9400401474F6250BF520
:100128000B74FF350AF50A050DE50D7002050CC3C1
:10013800E50D940AE50C9400401474F6250DF50DB0
:1001480074FF350CF50C050FE50F7002050ED3E5AD
:100158000B9400E50A94005005E4F50AF50BC3E595
:100168000F940AE50E9400401474F6250FF50F74E9
:10017800FF350EF50E0511E51170020510C3E511E6
:10018800940AE5109400400C74F62511F51174FFDB
:050198003510F51022F6
:0E02980012008F12019D12021412011880F242
:03000000020003F8
:0C000300787FE4F6D8FD75811202004AF7
:10000F00020298E493A3F8E493A34003F68001F26D
:10001F0008DFF48029E493A3F85407240CC8C333F2
:10002F00C4540F4420C8834004F456800146F6DFC1
:10003F00E4800B01020408102040809002A6E47EA9
:10004F00019360BCA3FF543F30E509541FFEE493B6
:10005F00A360010ECF54C025E060A840B8E493A37D
:10006F00FAE493A3F8E493A3C8C582C8CAC583CAA8
:10007F00F0A3C8C582C8CAC583CADFE9DEE780BE60
:0102AA000053
:00000001FF
